{
  "contractName": "Transaction",
  "abi": [
    {
      "inputs": [
        {
          "internalType": "address",
          "name": "",
          "type": "address"
        },
        {
          "internalType": "uint256",
          "name": "",
          "type": "uint256"
        }
      ],
      "name": "userList",
      "outputs": [
        {
          "internalType": "uint256",
          "name": "id",
          "type": "uint256"
        },
        {
          "internalType": "uint256",
          "name": "userid",
          "type": "uint256"
        },
        {
          "internalType": "uint256",
          "name": "amount",
          "type": "uint256"
        },
        {
          "internalType": "string",
          "name": "status",
          "type": "string"
        },
        {
          "internalType": "string",
          "name": "datevalues",
          "type": "string"
        }
      ],
      "stateMutability": "view",
      "type": "function",
      "constant": true
    },
    {
      "inputs": [
        {
          "internalType": "uint256",
          "name": "_userid",
          "type": "uint256"
        },
        {
          "internalType": "uint256",
          "name": "_amount",
          "type": "uint256"
        },
        {
          "internalType": "string",
          "name": "_status",
          "type": "string"
        },
        {
          "internalType": "string",
          "name": "_datevalues",
          "type": "string"
        }
      ],
      "name": "addPress",
      "outputs": [],
      "stateMutability": "nonpayable",
      "type": "function"
    },
    {
      "inputs": [],
      "name": "getUsers",
      "outputs": [
        {
          "internalType": "uint256[]",
          "name": "",
          "type": "uint256[]"
        },
        {
          "internalType": "uint256[]",
          "name": "",
          "type": "uint256[]"
        },
        {
          "internalType": "uint256[]",
          "name": "",
          "type": "uint256[]"
        },
        {
          "internalType": "string[]",
          "name": "",
          "type": "string[]"
        },
        {
          "internalType": "string[]",
          "name": "",
          "type": "string[]"
        }
      ],
      "stateMutability": "view",
      "type": "function",
      "constant": true
    },
    {
      "inputs": [
        {
          "internalType": "uint256",
          "name": "_id",
          "type": "uint256"
        },
        {
          "internalType": "string",
          "name": "_newStatus",
          "type": "string"
        }
      ],
      "name": "updateStatus",
      "outputs": [],
      "stateMutability": "nonpayable",
      "type": "function"
    }
  ],
  "bytecode": "0x6080604052600160005534801561001557600080fd5b506112f0806100256000396000f3fe608060405234801561001057600080fd5b5060043610610068576000357c010000000000000000000000000000000000000000000000000000000090048062ce8e3e1461006d578063450bc08d1461008f578063cd499523146100ab578063d1b34dd8146100df575b600080fd5b6100756100fb565b604051610086959493929190610af2565b60405180910390f35b6100a960048036038101906100a49190610cdd565b610536565b005b6100c560048036038101906100c09190610dda565b610632565b6040516100d6959493929190610e73565b60405180910390f35b6100f960048036038101906100f49190610ed4565b610795565b005b60608060608060606000600160003373ffffffffffffffffffffffffffffffffffffffff1673ffffffffffffffffffffffffffffffffffffffff16815260200190815260200160002080549050905060008167ffffffffffffffff81111561016657610165610bb2565b5b6040519080825280602002602001820160405280156101945781602001602082028036833780820191505090505b50905060008267ffffffffffffffff8111156101b3576101b2610bb2565b5b6040519080825280602002602001820160405280156101e15781602001602082028036833780820191505090505b50905060008367ffffffffffffffff811115610200576101ff610bb2565b5b60405190808252806020026020018201604052801561022e5781602001602082028036833780820191505090505b50905060008467ffffffffffffffff81111561024d5761024c610bb2565b5b60405190808252806020026020018201604052801561028057816020015b606081526020019060019003908161026b5790505b50905060008567ffffffffffffffff81111561029f5761029e610bb2565b5b6040519080825280602002602001820160405280156102d257816020015b60608152602001906001900390816102bd5790505b50905060005b86811015610519576000600160003373ffffffffffffffffffffffffffffffffffffffff1673ffffffffffffffffffffffffffffffffffffffff168152602001908152602001600020828154811061033357610332610f30565b5b90600052602060002090600502019050806000015487838151811061035b5761035a610f30565b5b602002602001018181525050806001015486838151811061037f5761037e610f30565b5b60200260200101818152505080600201548583815181106103a3576103a2610f30565b5b6020026020010181815250508060030180546103be90610f8e565b80601f01602080910402602001604051908101604052809291908181526020018280546103ea90610f8e565b80156104375780601f1061040c57610100808354040283529160200191610437565b820191906000526020600020905b81548152906001019060200180831161041a57829003601f168201915b505050505084838151811061044f5761044e610f30565b5b602002602001018190525080600401805461046990610f8e565b80601f016020809104026020016040519081016040528092919081815260200182805461049590610f8e565b80156104e25780601f106104b7576101008083540402835291602001916104e2565b820191906000526020600020905b8154815290600101906020018083116104c557829003601f168201915b50505050508383815181106104fa576104f9610f30565b5b602002602001018190525050808061051190610fee565b9150506102d8565b5084848484849a509a509a509a509a505050505050509091929394565b600080600081548092919061054a90610fee565b919050559050600160003373ffffffffffffffffffffffffffffffffffffffff1673ffffffffffffffffffffffffffffffffffffffff1681526020019081526020016000206040518060a00160405280838152602001878152602001868152602001858152602001848152509080600181540180825580915050600190039060005260206000209060050201600090919091909150600082015181600001556020820151816001015560408201518160020155606082015181600301908161061291906111e8565b50608082015181600401908161062891906111e8565b5050505050505050565b6001602052816000526040600020818154811061064e57600080fd5b90600052602060002090600502016000915091505080600001549080600101549080600201549080600301805461068490610f8e565b80601f01602080910402602001604051908101604052809291908181526020018280546106b090610f8e565b80156106fd5780601f106106d2576101008083540402835291602001916106fd565b820191906000526020600020905b8154815290600101906020018083116106e057829003601f168201915b50505050509080600401805461071290610f8e565b80601f016020809104026020016040519081016040528092919081815260200182805461073e90610f8e565b801561078b5780601f106107605761010080835404028352916020019161078b565b820191906000526020600020905b81548152906001019060200180831161076e57829003601f168201915b5050505050905085565b60005b600160003373ffffffffffffffffffffffffffffffffffffffff1673ffffffffffffffffffffffffffffffffffffffff168152602001908152602001600020805490508110156108d35782600160003373ffffffffffffffffffffffffffffffffffffffff1673ffffffffffffffffffffffffffffffffffffffff168152602001908152602001600020828154811061083457610833610f30565b5b906000526020600020906005020160000154036108c05781600160003373ffffffffffffffffffffffffffffffffffffffff1673ffffffffffffffffffffffffffffffffffffffff168152602001908152602001600020828154811061089d5761089c610f30565b5b906000526020600020906005020160030190816108ba91906111e8565b506108d3565b80806108cb90610fee565b915050610798565b505050565b600081519050919050565b600082825260208201905092915050565b6000819050602082019050919050565b6000819050919050565b61091781610904565b82525050565b6000610929838361090e565b60208301905092915050565b6000602082019050919050565b600061094d826108d8565b61095781856108e3565b9350610962836108f4565b8060005b8381101561099357815161097a888261091d565b975061098583610935565b925050600181019050610966565b5085935050505092915050565b600081519050919050565b600082825260208201905092915050565b6000819050602082019050919050565b600081519050919050565b600082825260208201905092915050565b60005b83811015610a065780820151818401526020810190506109eb565b60008484015250505050565b6000601f19601f8301169050919050565b6000610a2e826109cc565b610a3881856109d7565b9350610a488185602086016109e8565b610a5181610a12565b840191505092915050565b6000610a688383610a23565b905092915050565b6000602082019050919050565b6000610a88826109a0565b610a9281856109ab565b935083602082028501610aa4856109bc565b8060005b85811015610ae05784840389528151610ac18582610a5c565b9450610acc83610a70565b925060208a01995050600181019050610aa8565b50829750879550505050505092915050565b600060a0820190508181036000830152610b0c8188610942565b90508181036020830152610b208187610942565b90508181036040830152610b348186610942565b90508181036060830152610b488185610a7d565b90508181036080830152610b5c8184610a7d565b90509695505050505050565b6000604051905090565b600080fd5b600080fd5b610b8581610904565b8114610b9057600080fd5b50565b600081359050610ba281610b7c565b92915050565b600080fd5b600080fd5b7f4e487b7100000000000000000000000000000000000000000000000000000000600052604160045260246000fd5b610bea82610a12565b810181811067ffffffffffffffff82111715610c0957610c08610bb2565b5b80604052505050565b6000610c1c610b68565b9050610c288282610be1565b919050565b600067ffffffffffffffff821115610c4857610c47610bb2565b5b610c5182610a12565b9050602081019050919050565b82818337600083830152505050565b6000610c80610c7b84610c2d565b610c12565b905082815260208101848484011115610c9c57610c9b610bad565b5b610ca7848285610c5e565b509392505050565b600082601f830112610cc457610cc3610ba8565b5b8135610cd4848260208601610c6d565b91505092915050565b60008060008060808587031215610cf757610cf6610b72565b5b6000610d0587828801610b93565b9450506020610d1687828801610b93565b935050604085013567ffffffffffffffff811115610d3757610d36610b77565b5b610d4387828801610caf565b925050606085013567ffffffffffffffff811115610d6457610d63610b77565b5b610d7087828801610caf565b91505092959194509250565b600073ffffffffffffffffffffffffffffffffffffffff82169050919050565b6000610da782610d7c565b9050919050565b610db781610d9c565b8114610dc257600080fd5b50565b600081359050610dd481610dae565b92915050565b60008060408385031215610df157610df0610b72565b5b6000610dff85828601610dc5565b9250506020610e1085828601610b93565b9150509250929050565b610e2381610904565b82525050565b600082825260208201905092915050565b6000610e45826109cc565b610e4f8185610e29565b9350610e5f8185602086016109e8565b610e6881610a12565b840191505092915050565b600060a082019050610e886000830188610e1a565b610e956020830187610e1a565b610ea26040830186610e1a565b8181036060830152610eb48185610e3a565b90508181036080830152610ec88184610e3a565b90509695505050505050565b60008060408385031215610eeb57610eea610b72565b5b6000610ef985828601610b93565b925050602083013567ffffffffffffffff811115610f1a57610f19610b77565b5b610f2685828601610caf565b9150509250929050565b7f4e487b7100000000000000000000000000000000000000000000000000000000600052603260045260246000fd5b7f4e487b7100000000000000000000000000000000000000000000000000000000600052602260045260246000fd5b60006002820490506001821680610fa657607f821691505b602082108103610fb957610fb8610f5f565b5b50919050565b7f4e487b7100000000000000000000000000000000000000000000000000000000600052601160045260246000fd5b6000610ff982610904565b91507fffffffffffffffffffffffffffffffffffffffffffffffffffffffffffffffff820361102b5761102a610fbf565b5b600182019050919050565b60008190508160005260206000209050919050565b60006020601f8301049050919050565b60008160020a8302905092915050565b60006008830261109b7fffffffffffffffffffffffffffffffffffffffffffffffffffffffffffffffff8261105b565b6110a5868361105b565b95508019841693508086168417925050509392505050565b6000819050919050565b60006110e26110dd6110d884610904565b6110bd565b610904565b9050919050565b6000819050919050565b6110fc836110c7565b611110611108826110e9565b84845461106b565b825550505050565b600090565b611125611118565b6111308184846110f3565b505050565b5b818110156111545761114960008261111d565b600181019050611136565b5050565b601f8211156111995761116a81611036565b6111738461104b565b81016020851015611182578190505b61119661118e8561104b565b830182611135565b50505b505050565b60008160020a8304905092915050565b60006111bf6000198460080261119e565b1980831691505092915050565b60006111d883836111ae565b9150826002028217905092915050565b6111f1826109cc565b67ffffffffffffffff81111561120a57611209610bb2565b5b6112148254610f8e565b61121f828285611158565b600060209050601f8311600181146112525760008415611240578287015190505b61124a85826111cc565b8655506112b2565b601f19841661126086611036565b60005b8281101561128857848901518255600182019150602085019450602081019050611263565b868310156112a557848901516112a1601f8916826111ae565b8355505b6001600288020188555050505b50505050505056fea26469706673582212200c628fe18998511a162e87da581e0c87d83088cd325881bf826fa59c77708f7764736f6c63430008150033",
  "immutableReferences": {},
  "source": "// SPDX-License-Identifier: MIT\r\npragma solidity ^0.8.21;\r\n\r\ncontract Transaction {\r\n    struct User {\r\n        uint256 id;        \r\n        uint256 userid; \r\n        uint256 amount;\r\n        string status;\r\n        string datevalues;\r\n    }\r\n    \r\n    uint256 private nextId = 1;\r\n    mapping(address => User[]) public userList;\r\n\r\n    function addPress(\r\n        uint256 _userid,    \r\n        uint256 _amount,\r\n        string memory _status,\r\n        string memory _datevalues\r\n    ) public {\r\n        uint256 currentId = nextId++;\r\n        userList[msg.sender].push(\r\n            User(currentId, _userid, _amount, _status, _datevalues)\r\n        );\r\n    }\r\n\r\n    function getUsers()\r\n        public\r\n        view\r\n        returns (\r\n            uint256[] memory,\r\n            uint256[] memory,\r\n            uint256[] memory,\r\n            string[] memory,\r\n            string[] memory\r\n        )\r\n    {\r\n        uint256 count = userList[msg.sender].length;\r\n        uint256[] memory ids = new uint256[](count);\r\n        uint256[] memory userids = new uint256[](count);\r\n        uint256[] memory amounts = new uint256[](count);\r\n        string[] memory statuses = new string[](count);\r\n        string[] memory dateValues = new string[](count);\r\n\r\n        for (uint256 index = 0; index < count; index++) {\r\n            User storage user = userList[msg.sender][index];\r\n            ids[index] = user.id;\r\n            userids[index] = user.userid;\r\n            amounts[index] = user.amount;\r\n            statuses[index] = user.status;\r\n            dateValues[index] = user.datevalues;\r\n        }\r\n        return (ids, userids, amounts, statuses, dateValues);\r\n    }\r\n\r\n    \r\n    function updateStatus(uint256 _id, string memory _newStatus) public {\r\n        for (uint i = 0; i < userList[msg.sender].length; i++) {\r\n            if (userList[msg.sender][i].id == _id) {\r\n                userList[msg.sender][i].status = _newStatus;\r\n                break;\r\n            }\r\n        }\r\n    }\r\n}\r\n",
  "sourcePath": "D:\\Web\\Foerign Money\\0 blocks\\contracts\\Transaction.sol",
  "compiler": {
    "name": "solc",
    "version": "0.8.21+commit.d9974bed.Emscripten.clang"
  },
  "schemaVersion": "3.4.16",
  "updatedAt": "2025-04-07T09:35:25.562Z",
  "networkType": "ethereum",
  "devdoc": {
    "kind": "dev",
    "methods": {},
    "version": 1
  },
  "userdoc": {
    "kind": "user",
    "methods": {},
    "version": 1
  }
}